:100000000C945E000C944D020C947A020C948600C1
:100010000C9486000C9486000C9486000C94860048
:100020000C9486000C9486000C9486000C94860038
:100030000C9486000C9486000C9486000C94860028
:100040000C948B060C9486000C94AB030C94DD038B
:100050000C9486000C9486000C9486000C94860008
:100060000C9486000C948600000000080002010039
:100070000003040700000000000000000102040863
:100080001020408001020408102001020408102002
:10009000040404040404040402020202020203032E
:1000A0000303030300000000250028002B000000CC
:1000B0000000240027002A006B010D0411241FBE3C
:1000C000CFEFD8E0DEBFCDBF11E0A0E0B1E0E8E1C6
:1000D000F4E102C005900D92AC32B107D9F722E0ED
:1000E000ACE2B1E001C01D92A139B207E1F710E026
:1000F000CCEBD0E004C02297FE010E94060AC83B68
:10010000D107C9F70E9451040C941C070C940000FD
:10011000809135018F5F809335010895809136017C
:100120000E943D028091350160912C0170912D015A
:10013000680F711D70932D0160932C01683E83E060
:10014000780724F081E08093340102C010923401DA
:100150004AE050E085EE91E00E9493031092350151
:1001600042E050E068E870E0809136010C941D0296
:1001700080913401882311F061E001C060E08DE0DE
:100180000C94E701FC01808190E0C09748EE53E0B9
:10019000849F9001859F300D949F300D11248181A3
:1001A00090E0C09764E6689FA001699F500D1124FC
:1001B000240F351F828190E0C0976AE0689FA001FC
:1001C000699F500D1124240F351F838190E0C09743
:1001D000280F391F3F932F9381E091E09F938F93D6
:1001E0000E941F070F900F900F900F900895CF93CC
:1001F000DF9300D000D01F92CDB7DEB785E0E5E0F9
:10020000F1E0DE01119601900D928A95E1F7CE01A1
:1002100001960E94C2000F900F900F900F900F90C8
:10022000DF91CF91089526E040E855E260E070E06C
:1002300085EE91E00E94430560E0809100010E94FC
:10024000AE0161E08DE00E94AE0161E080910001AD
:100250000E94E7012EE830E048E853E160E070E0FA
:1002600087E391E00E943506992787FD909590934A
:1002700033018093320128EB30E040ED57E060E03D
:1002800070E087E391E00E943506992787FD9095FD
:10029000909331018093300127EF30E040E951E045
:1002A00060E070E087E391E00E943506992787FDC2
:1002B000909590932F0180932E011092350142E08A
:1002C00050E068E870E0809136010C941D0287E3ED
:1002D00091E00C94D80587E391E00C94A50585EE98
:1002E00091E00E946004892B79F085EE91E00E94F4
:1002F00079048033A1F71092340110922D011092ED
:100300002C0110923501EBCF0895833081F028F451
:10031000813099F08230A1F008958730A9F08830BB
:10032000B9F08430D1F4809180008F7D03C080913A
:1003300080008F7780938000089584B58F7702C006
:1003400084B58F7D84BD08958091B0008F7703C000
:100350008091B0008F7D8093B0000895CF93DF939C
:1003600090E0FC01E458FF4F2491FC01E057FF4F5F
:100370008491882349F190E0880F991FFC01E25590
:10038000FF4FA591B4918C559F4FFC01C591D4911D
:100390009FB7611108C0F8948C91209582238C93AB
:1003A000888182230AC0623051F4F8948C91322FF4
:1003B000309583238C938881822B888304C0F894A2
:1003C0008C91822B8C939FBFDF91CF9108950F93D7
:1003D0001F93CF93DF931F92CDB7DEB7282F30E066
:1003E000F901E859FF4F8491F901E458FF4F149146
:1003F000F901E057FF4F04910023C9F0882321F051
:1004000069830E9485016981E02FF0E0EE0FFF1FF4
:10041000EC55FF4FA591B4919FB7F8948C91611161
:1004200003C01095812301C0812B8C939FBF0F9037
:10043000DF91CF911F910F9108958230E8F4E82F5A
:10044000F0E0EE0FFF1FEF51FE4F718360838130AC
:1004500041F0809169008C7F842B80936900E89A39
:10046000089580916900440F551F440F551F837FE5
:10047000842B80936900E99A0895823068F4813072
:1004800011F0E89801C0E998E82FF0E0EE0FFF1FA7
:10049000EF51FE4F1182108208951F920F920FB6F6
:1004A0000F9211242F933F934F935F936F937F93FA
:1004B0008F939F93AF93BF93EF93FF938091E1014D
:1004C0009091E201892B29F0E091E101F091E201A4
:1004D0000995FF91EF91BF91AF919F918F917F917E
:1004E0006F915F914F913F912F910F900FBE0F90A1
:1004F0001F9018951F920F920FB60F9211242F93F1
:100500003F934F935F936F937F938F939F93AF939B
:10051000BF93EF93FF938091E3019091E401892BC6
:1005200029F0E091E301F091E4010995FF91EF9149
:10053000BF91AF919F918F917F916F915F914F91FB
:100540003F912F910F900FBE0F901F901895CF9253
:10055000DF92EF92FF920F931F93CF93DF936C0183
:100560007A01EB01E60EF71E00E010E0CE15DF0584
:1005700061F06991D601ED91FC910190F081E02D3F
:10058000C6010995080F191FF1CFC801DF91CF915E
:100590001F910F91FF90EF90DF90CF90089561151C
:1005A000710581F0DB010D900020E9F7AD014150AC
:1005B0005109461B570BDC01ED91FC910280F38140
:1005C000E02D099480E090E00895DC01ED91FC912C
:1005D0000190F081E02D09946AE071E00C94CF0263
:1005E0008F929F92AF92BF92CF92DF92EF92FF9243
:1005F0000F931F93CF93DF93CDB7DEB7A1970FB6BD
:10060000F894DEBF0FBECDBF7C01C42EE52FCB0119
:10061000D22E19A221E02D1510F02AE0D22E8E0143
:100620000F5D1F4F8D2C912CA12CB12C6C2D7E2F8A
:10063000A50194010E94AB098C2DD29E8019112432
:10064000015011098A3014F4805D01C0895CF80101
:100650008083211531054105510521F0C22EE32F7C
:10066000CA01E4CFB801C7010E94CF02A1960FB61C
:10067000F894DEBF0FBECDBFDF91CF911F910F91D8
:10068000FF90EF90DF90CF90BF90AF909F908F90B2
:100690000895CF92DF92EF92FF920F931F93CF9323
:1006A000DF93EC016A017B012115310579F4E881C2
:1006B000F9810190F081E02D642FDF91CF911F919E
:1006C0000F91FF90EF90DF90CF9009942A30310581
:1006D000E9F477FF1AC06DE20E94E5028C0144271D
:1006E0005527BA014C195D096E097F092AE0CE0130
:1006F0000E94F002800F911FDF91CF911F910F9107
:10070000FF90EF90DF90CF9008952AE0B701A60107
:10071000CE01DF91CF911F910F91FF90EF90DF906D
:10072000CF900C94F0020F931F93CF93DF93EC01C3
:100730009A01AB01662757FD6095762F0E94490309
:100740008C01CE010E94EC02800F911FDF91CF91AE
:100750001F910F9108951F920F920FB60F921124BF
:100760002F938F939F93EF93FF93E091F501F09177
:10077000F6018081E091FB01F091FC0182FD12C045
:1007800090818091FE018F5F8F732091FF0182170E
:1007900051F0E091FE01F0E0EB51FE4F958F809318
:1007A000FE0101C08081FF91EF919F918F912F9168
:1007B0000F900FBE0F901F9018951F920F920FB6BB
:1007C0000F9211242F933F934F935F936F937F93D7
:1007D0008F939F93AF93BF93EF93FF9385EE91E039
:1007E0000E949B04FF91EF91BF91AF919F918F91D8
:1007F0007F916F915F914F913F912F910F900FBE1D
:100800000F901F90189585EE91E00E94600421E002
:10081000892B09F420E0822F08951092E8011092AC
:10082000E70188EE93E0A0E0B0E08093E9019093C7
:10083000EA01A093EB01B093EC018FE191E090937A
:10084000E6018093E50185EC90E09093F2018093BE
:10085000F10184EC90E09093F4018093F30180EC3B
:1008600090E09093F6018093F50181EC90E09093F5
:10087000F8018093F70182EC90E09093FA01809365
:10088000F90186EC90E09093FC018093FB011092BB
:10089000FE011092FF0110920002109201020895D1
:1008A00008950E94E1060E9450040E941301CDE8C1
:1008B000D4E00E9467012097E1F30E948D04F9CFF4
:1008C000FC01818D228D90E0805C9F4F821B9109FD
:1008D0008F7399270895FC01918D828D981731F0BF
:1008E000828DE80FF11D858D90E008958FEF9FEFC9
:1008F0000895FC01918D828D981761F0828DDF0142
:10090000A80FB11D5D968C91928D9F5F9F73928F02
:1009100090E008958FEF9FEF089583E094E0892B96
:1009200049F08FE691E0892B29F00E9403048111A0
:100930000C946F010895FC01848DDF01A80FB11D97
:10094000A35ABF4F2C91848D90E001968F73992705
:10095000848FA689B7892C93A089B1898C918064F2
:100960008C93938D848D981306C00288F389E02DB3
:1009700080818F7D80830895CF93DF93EC01888DF4
:100980008823C9F0EA89FB89808185FD05C0A88993
:10099000B9898C9186FD0FC00FB607FCF5CF808119
:1009A00085FFF2CFA889B9898C9185FFEDCFCE0163
:1009B0000E949B04E7CFDF91CF910895CF92DF9201
:1009C000FF920F931F93CF93DF931F92CDB7DEB7A4
:1009D0006C0181E0D60158968C9358975B969C9158
:1009E0005B975C968C915C97981307C05096ED913D
:1009F000FC915197808185FD2EC0F601038D10E09A
:100A00000F5F1F4F0F731127F02EF601848DF81220
:100A100011C00FB607FCF9CFD6015096ED91FC91AD
:100A20005197808185FFF1CFC60169830E949B04A5
:100A30006981EBCF838DE80FF11DE35AFF4F60838F
:100A4000D6015B960C935B975296ED91FC91539770
:100A5000808180620CC0D6015696ED91FC9157972B
:100A600060835096ED91FC915197808180648083E2
:100A700081E090E00F90DF91CF911F910F91FF9057
:100A8000DF90CF900895BF92CF92DF92EF92FF92C6
:100A9000CF93DF93EC016A017B01B22EE889F989DB
:100AA00082E08083411581EE580761057105A1F050
:100AB00060E079E08DE390E0A70196010E94AB0928
:100AC0002150310941095109569547953795279588
:100AD000211580E1380798F0E889F989108260E8EB
:100AE00074E88EE190E0A70196010E94AB092150C5
:100AF0003109410951095695479537952795EC8558
:100B0000FD853083EE85FF852083188EEC89FD8975
:100B1000B082EA89FB89808180618083EA89FB89D0
:100B2000808188608083EA89FB89808180688083F6
:100B3000EA89FB8980818F7D8083DF91CF91FF904F
:100B4000EF90DF90CF90BF9008950F931F93CF93B6
:100B5000DF93EC018C0106551F4FCE010E943E062B
:100B60006196C017D107C9F7DF91CF911F910F91FF
:100B70000895CF92DF92EF92FF921F93CF93DF936E
:100B80006A017B01EC011AE08881882329F0B70112
:100B9000A601CE010E944106115061961111F4CFB9
:100BA000DF91CF911F91FF90EF90DF90CF9008954C
:100BB000CF93DF93EC010E94D506AB01BC01CE01BF
:100BC000DF91CF910C94B90520E0FC0130813323F3
:100BD00031F02F5F41962A30C1F78FEF0895822FB1
:100BE0000895CF92DF92EF92FF920F931F93CF93CE
:100BF000DF9300D000D0CDB7DEB76C017901498317
:100C00005A836B837C830E94E405282F49815A8193
:100C10006B817C818F3FD9F081E12802C00CD11C0F
:100C2000112481E0F60180834183528363837483BE
:100C300016830583F286E18629830E94D506F60194
:100C40006387748785879687108A17862981822F04
:100C50000F900F900F900F90DF91CF911F910F91F8
:100C6000FF90EF90DF90CF9008950F931F930FEFB9
:100C70001FEF0E94F1051F910F910895FC01108252
:100C80000895CF92DF92EF92FF92CF93DF93EC0122
:100C90006A017B018B859C85AD85BE859A01AB0180
:100CA000281B390B4A0B5B0BDA01C90149815A81B8
:100CB0006B817C8184179507A607B707D8F08881D8
:100CC000813019F0823029F00CC0E985FA85099548
:100CD00008C061E08885811160E068878F810E948B
:100CE000E701CB86DC86ED86FE868F8598890196A6
:100CF000988B8F878D819E8197FD06C02F853889BF
:100D0000281739070CF01882DF91CF91FF90EF90F0
:100D1000DF90CF9008951F920F920FB60F9211247B
:100D20002F933F938F939F93AF93BF9380918302B1
:100D300090918402A0918502B09186023091820246
:100D400023E0230F2D3720F40196A11DB11D05C00E
:100D500026E8230F0296A11DB11D209382028093E5
:100D6000830290938402A0938502B09386028091BF
:100D7000870290918802A0918902B0918A0201961F
:100D8000A11DB11D8093870290938802A0938902D0
:100D9000B0938A02BF91AF919F918F913F912F9114
:100DA0000F900FBE0F901F9018952FB7F894609179
:100DB00083027091840280918502909186022FBFF8
:100DC0000895789484B5826084BD84B5816084BDC3
:100DD00085B5826085BD85B5816085BDEEE6F0E0B4
:100DE000808181608083E1E8F0E010828081826010
:100DF0008083808181608083E0E8F0E08081816091
:100E00008083E1EBF0E0808184608083E0EBF0E0C0
:100E1000808181608083EAE7F0E080818460808364
:100E2000808182608083808181608083808180680E
:100E300080831092C1000895F8940C940A0AA0E0EF
:100E4000B0E0E5E2F7E00C94DD09FE013596619132
:100E50007191AF0180918D0290918E020E943307B3
:100E6000E2E00C94F909ACE0B0E0E9E3F7E00C94BF
:100E7000CD097C016B018A01FC01178216828381F6
:100E800081FFBDC1CE0101964C01F7019381F601AE
:100E900093FD859193FF81916F01882309F4ABC184
:100EA000853239F493FD859193FF81916F018532ED
:100EB00029F4B70190E00E941B09E7CF512C312C97
:100EC00020E02032A0F48B3269F030F4803259F007
:100ED000833269F420612CC08D3239F0803339F4CB
:100EE000216026C02260246023C0286021C027FD25
:100EF00027C030ED380F3A3078F426FF06C0FAE00C
:100F00005F9E300D1124532E13C08AE0389E300DA1
:100F10001124332E20620CC08E3221F426FD6BC1C9
:100F2000206406C08C3611F4206802C0883641F473
:100F3000F60193FD859193FF81916F018111C1CFDE
:100F4000982F9F7D9554933028F40C5F1F4FFFE33B
:100F5000F9830DC0833631F0833771F0833509F0A2
:100F60005BC022C0F801808189830E5F1F4F44243B
:100F70004394512C540115C03801F2E06F0E711CDE
:100F8000F801A080B18026FF03C0652D70E002C08B
:100F90006FEF7FEFC5012C870E9410092C018301A0
:100FA0002C852F77222E17C03801F2E06F0E711CAE
:100FB000F801A080B18026FF03C0652D70E002C05B
:100FC0006FEF7FEFC5012C870E9405092C012C854E
:100FD0002068222E830123FC1BC0832D90E048163D
:100FE0005906B0F4B70180E290E00E941B093A94E0
:100FF000F4CFF50127FC859127FE81915F01B701B0
:1010000090E00E941B0931103A94F1E04F1A510808
:101010004114510471F7E5C0843611F0893639F571
:10102000F80127FF07C060817181828193810C5F85
:101030001F4F08C060817181882777FD8095982FA8
:101040000E5F1F4F2F76B22E97FF09C090958095A7
:10105000709561957F4F8F4F9F4F2068B22E2AE089
:1010600030E0A4010E944D09A82EA81844C085377D
:1010700029F42F7EB22E2AE030E025C0F22FF97F2E
:10108000BF2E8F36C1F018F4883579F0B4C08037A0
:1010900019F0883721F0AFC02F2F2061B22EB4FE97
:1010A0000DC08B2D8460B82E09C024FF0AC09F2F6D
:1010B0009660B92E06C028E030E005C020E130E09F
:1010C00002C020E132E0F801B7FE07C06081718103
:1010D000828193810C5F1F4F06C06081718180E027
:1010E00090E00E5F1F4FA4010E944D09A82EA81882
:1010F000FB2DFF77BF2EB6FE0BC02B2D2E7FA51428
:1011000050F4B4FE0AC0B2FC08C02B2D2E7E05C0E0
:101110007A2C2B2D03C07A2C01C0752C24FF0DC016
:10112000FE01EA0DF11D8081803311F4297E09C092
:1011300022FF06C07394739404C0822F867809F04E
:10114000739423FD13C020FF06C05A2C731418F4A7
:10115000530C5718732C731468F4B70180E290E0B5
:101160002C870E941B0973942C85F5CF731410F4FF
:10117000371801C0312C24FF12C0B70180E390E082
:101180002C870E941B092C8522FF17C021FF03C05A
:1011900088E590E002C088E790E0B7010CC0822F9C
:1011A000867859F021FD02C080E201C08BE227FD64
:1011B0008DE2B70190E00E941B09A51438F4B70135
:1011C00080E390E00E941B095A94F7CFAA94F4019F
:1011D000EA0DF11D8081B70190E00E941B09A1106A
:1011E000F5CF332009F451CEB70180E290E00E94A0
:1011F0001B093A94F6CFF7018681978102C08FEFE1
:101200009FEF2C96E2E10C94E909FC0105906150F6
:1012100070400110D8F7809590958E0F9F1F08950C
:10122000FC016150704001900110D8F780959095B5
:101230008E0F9F1F08950F931F93CF93DF93182F47
:10124000092FEB018B8181FD03C08FEF9FEF20C041
:1012500082FF10C04E815F812C813D814217530770
:101260007CF4E881F9819F012F5F3F4F3983288308
:10127000108306C0E885F985812F0995892B29F708
:101280002E813F812F5F3F4F3F832E83812F902FF1
:10129000DF91CF911F910F910895FA01AA2728306D
:1012A00051F1203181F1E8946F936E7F6E5F7F4F33
:1012B0008F4F9F4FAF4FB1E03ED0B4E03CD0670FAF
:1012C000781F891F9A1FA11D680F791F8A1F911D02
:1012D000A11D6A0F711D811D911DA11D20D009F452
:1012E00068943F912AE0269F11243019305D319394
:1012F000DEF6CF010895462F4770405D4193B3E07D
:101300000FD0C9F7F6CF462F4F70405D4A3318F023
:10131000495D31FD4052419302D0A9F7EACFB4E0D4
:10132000A6959795879577956795BA95C9F700978C
:101330006105710508959B01AC010A2E069457952D
:10134000479537952795BA95C9F7620F731F841F84
:10135000951FA01D0895A1E21A2EAA1BBB1BFD011B
:101360000DC0AA1FBB1FEE1FFF1FA217B307E40784
:10137000F50720F0A21BB30BE40BF50B661F771FDC
:10138000881F991F1A9469F76095709580959095BC
:101390009B01AC01BD01CF0108952F923F924F9266
:1013A0005F926F927F928F929F92AF92BF92CF92F5
:1013B000DF92EF92FF920F931F93CF93DF93CDB7FE
:1013C000DEB7CA1BDB0B0FB6F894DEBF0FBECDBF76
:1013D00009942A88398848885F846E847D848C8447
:1013E0009B84AA84B984C884DF80EE80FD800C8150
:1013F0001B81AA81B981CE0FD11D0FB6F894DEBF33
:101400000FBECDBFED010895EE0FFF1F0590F491C3
:08141000E02D0994F894FFCFD0
:101418000225640A0031323334000D0A006E616E11
:1014280000696E66006F7666002E0000000000DE20
:0C14380004A702600479046B04BC0400EB
:00000001FF
