:100000000C9464000C9433030C9460030C943C0730
:100010000C943C070C943C070C948C000C948C00C2
:100020000C948C000C948C000C948C000C948C0020
:100030000C948C000C948C000C948C000C948C0010
:100040000C9472020C948C000C944F040C94810458
:100050000C948C000C948C000C948C000C948C00F0
:100060000C948C000C948C0000000008000201002D
:100070000003040700000000000000000102040863
:100080001020408001020408102001020408102002
:10009000040404040404040402020202020203032E
:1000A00003030303000000002300260029000000D2
:1000B0000000250028002B0000000000240027007D
:1000C0002A00CF01B104D60111241FBECFEFD8E022
:1000D000DEBFCDBF11E0A0E0B1E0E2EAF5E102C091
:1000E00005900D92A837B107D9F722E0A8E7B1E053
:1000F00001C01D92A539B207E1F710E0C6ECD0E0CF
:1001000004C02297FE010E94C00AC23CD107C9F771
:100110000E94F5040C94CD080C9400008091860197
:100120008F5F80938601089526E040E855E260E005
:1001300070E084EB91E00E94E70540E855E260E062
:1001400070E088E891E00E943F0861E0809105013D
:100150000E94030261E0809105010E943C0260E080
:10016000809104010E94030261E0809104010E94D9
:100170003C0210928601109282011092830110922B
:1001800084011092850110928101109280011092D9
:100190007C0110927D0110927E0110927F011092DD
:1001A00078011092790110927A0110927B0142E05D
:1001B00050E06EE870E0809187010C940303CF92C9
:1001C000DF92EF92FF92CF930E94BC02C090780121
:1001D000D0907901E0907A01F0907B016C197D0953
:1001E0008E099F09693E73408105910508F4D1C0CD
:1001F000809187010E9423030E94BC02C091860166
:10020000C0907801D0907901E0907A01F0907B0164
:100210006C197D098E099F090E9464099B01AC013C
:1002200060E070E08AE794E40E94D0086B017C01F2
:100230006C2F70E080E090E00E9466099B01AC01A9
:10024000C701B6010E94F20920910001309101011D
:1002500040910201509103010E94D00860938201F5
:100260007093830180938401909385010E94BC0266
:10027000609378017093790180937A0190937B0168
:1002800020E030E040E752E4609182017091830108
:1002900080918401909185010E94D00820E030E097
:1002A0004AE754E40E94F2090E94380970938101E0
:1002B00060938001C0907C01D0907D01E0907E0130
:1002C000F0907F01C60ED71EE11CF11CC0927C018C
:1002D000D0927D01E0927E01F0927F0166E071E0B4
:1002E00084EB91E00E94CB036091800170918101C9
:1002F0004AE050E084EB91E00E94490461E271E041
:1003000084EB91E00E94CB0368E271E084EB91E022
:100310000E94CB0340917C0150917D0160917E0150
:1003200070917F012AE030E084EB91E00E943C0470
:1003300063E471E084EB91E00E94D10340917C0181
:1003400050917D0160917E0170917F012AE030E043
:1003500088E891E00E943C0440917C0150917D012D
:1003600060917E0170917F012AE030E084EB91E0A2
:100370000E943C041092860142E050E06EE870E07A
:1003800080918701CF91FF90EF90DF90CF900C94F8
:100390000303CF91FF90EF90DF90CF90089520E07E
:1003A00044E063E088E891E00C940F0888E891E06D
:1003B0000C94B607833081F028F4813099F08230B4
:1003C000A1F008958730A9F08830B9F08430D1F4D5
:1003D000809180008F7D03C0809180008F77809313
:1003E0008000089584B58F7702C084B58F7D84BD69
:1003F00008958091B0008F7703C08091B0008F7D09
:100400008093B0000895CF93DF9390E0FC01E4580F
:10041000FF4F2491FC01E057FF4F8491882349F15D
:1004200090E0880F991FFC01E854FF4FA591B4910B
:1004300082559F4FFC01C591D4919FB7611108C0AF
:10044000F8948C91209582238C93888182230AC012
:10045000623051F4F8948C91322F309583238C9331
:100460008881822B888304C0F8948C91822B8C9392
:100470009FBFDF91CF9108950F931F93CF93DF9389
:100480001F92CDB7DEB7282F30E0F901E859FF4FB2
:100490008491F901E458FF4F1491F901E057FF4F9F
:1004A00004910023C9F0882321F069830E94DA01B6
:1004B0006981E02FF0E0EE0FFF1FE255FF4FA5919D
:1004C000B4919FB7F8948C91611103C0109581236A
:1004D00001C0812B8C939FBF0F90DF91CF911F9113
:1004E0000F9108951F920F920FB60F9211242F9320
:1004F0003F938F939F93AF93BF938091A801909167
:10050000A901A091AA01B091AB013091A70123E00C
:10051000230F2D3720F40196A11DB11D05C026E83B
:10052000230F0296A11DB11D2093A7018093A8015E
:100530009093A901A093AA01B093AB018091AC0163
:100540009091AD01A091AE01B091AF010196A11DB6
:10055000B11D8093AC019093AD01A093AE01B09317
:10056000AF01BF91AF919F918F913F912F910F90CC
:100570000FBE0F901F9018952FB7F8946091A801A7
:100580007091A9018091AA019091AB012FBF0895AC
:10059000789484B5826084BD84B5816084BD85B55E
:1005A000826085BD85B5816085BDEEE6F0E0808125
:1005B00081608083E1E8F0E0108280818260808346
:1005C000808181608083E0E8F0E0808181608083C9
:1005D000E1EBF0E0808184608083E0EBF0E08081FB
:1005E00081608083EAE7F0E080818460808380819D
:1005F0008260808380818160808380818068808345
:100600001092C10008958230E8F4E82FF0E0EE0F78
:10061000FF1FE055FE4F71836083813041F0809170
:1006200069008C7F842B80936900E89A08958091FB
:100630006900440F551F440F551F837F842B8093FF
:100640006900E99A0895823068F4813011F0E898E1
:1006500001C0E998E82FF0E0EE0FFF1FE055FE4FD4
:100660001182108208951F920F920FB60F921124DB
:100670002F933F934F935F936F937F938F939F93AA
:10068000AF93BF93EF93FF938091B0019091B1012D
:10069000892B29F0E091B001F091B1010995FF910A
:1006A000EF91BF91AF919F918F917F916F915F91EA
:1006B0004F913F912F910F900FBE0F901F90189563
:1006C0001F920F920FB60F9211242F933F934F93C7
:1006D0005F936F937F938F939F93AF93BF93EF93AA
:1006E000FF938091B2019091B301892B29F0E091A1
:1006F000B201F091B3010995FF91EF91BF91AF91D4
:100700009F918F917F916F915F914F913F912F9129
:100710000F900FBE0F901F901895CF92DF92EF921F
:10072000FF920F931F93CF93DF936C017A01EB013C
:10073000E60EF71E00E010E0CE15DF0561F06991CE
:10074000D601ED91FC910190F081E02DC601099553
:10075000080F191FF1CFC801DF91CF911F910F91A1
:10076000FF90EF90DF90CF9008956115710581F0B3
:10077000DB010D900020E9F7AD0141505109461B06
:10078000570BDC01ED91FC910280F381E02D09947F
:1007900080E090E008950C94B50366E471E00C9459
:1007A000B5030F931F93CF93DF93EC010E94B50322
:1007B0008C01CE010E94CD03800F911FDF91CF915C
:1007C0001F910F9108958F929F92AF92BF92CF92F7
:1007D000DF92EF92FF920F931F93CF93DF93CDB7EA
:1007E000DEB7A1970FB6F894DEBF0FBECDBF7C0178
:1007F000C42EE52FCB01D22E19A221E02D1510F029
:100800002AE0D22E8E010F5D1F4F8D2C912CA12C32
:10081000B12C6C2D7E2FA50194010E94690A8C2DAC
:10082000D29E80191124015011098A3014F4805D80
:1008300001C0895CF801808321153105410551050E
:1008400021F0C22EE32FCA01E4CFB801C7010E94F4
:10085000B503A1960FB6F894DEBF0FBECDBFDF91F2
:10086000CF911F910F91FF90EF90DF90CF90BF90AD
:10087000AF909F908F9008952115310541F4DC01D0
:10088000ED91FC910190F081E02D642F09940C947E
:10089000E3039A01AB0160E070E00C943C041F920A
:1008A0000F920FB60F9211242F938F939F93EF9374
:1008B000FF93E091C401F091C5018081E091CA01EC
:1008C000F091CB0182FD12C090818091CD018F5FAC
:1008D0008F732091CE01821751F0E091CD01F0E0AD
:1008E000EC54FE4F958F8093CD0101C08081FF9124
:1008F000EF919F918F912F910F900FBE0F901F90AE
:1009000018951F920F920FB60F9211242F933F93B9
:100910004F935F936F937F938F939F93AF93BF9307
:10092000EF93FF9384EB91E00E943F05FF91EF91DD
:10093000BF91AF919F918F917F916F915F914F91F7
:100940003F912F910F900FBE0F901F90189584EB41
:1009500091E00E94040521E0892B09F420E0822F18
:1009600008951092B7011092B60188EE93E0A0E0CE
:10097000B0E08093B8019093B901A093BA01B0930D
:10098000BB018BE591E09093B5018093B40185ECB8
:1009900090E09093C1018093C00184EC90E090932B
:1009A000C3018093C20180EC90E09093C5018093D5
:1009B000C40181EC90E09093C7018093C60182EC62
:1009C00090E09093C9018093C80186EC90E09093E9
:1009D000CB018093CA011092CD011092CE011092EA
:1009E000CF011092D001089508950E94C8020E947C
:1009F000F4040E949400C1E3D5E00E94DF00209738
:100A0000E1F30E943105F9CFFC01818D228D90E048
:100A1000805C9F4F821B91098F7399270895FC0179
:100A2000918D828D981731F0828DE80FF11D858DA3
:100A300090E008958FEF9FEF0895FC01918D828DD6
:100A4000981761F0828DDF01A80FB11D5D968C9122
:100A5000928D9F5F9F73928F90E008958FEF9FEF2D
:100A6000089587EA94E0892B49F080E090E0892B93
:100A700029F00E94A70481110C9400000895FC0144
:100A8000848DDF01A80FB11DA35ABF4F2C91848D17
:100A900090E001968F739927848FA689B7892C934C
:100AA000A089B1898C9180648C93938D848D9813E7
:100AB00006C00288F389E02D80818F7D80830895B0
:100AC000CF93DF93EC01888D8823C9F0EA89FB89F5
:100AD000808185FD05C0A889B9898C9186FD0FC0EC
:100AE0000FB607FCF5CF808185FFF2CFA889B989C1
:100AF0008C9185FFEDCFCE010E943F05E7CFDF91BE
:100B0000CF910895CF92DF92FF920F931F93CF93CF
:100B1000DF931F92CDB7DEB76C0181E0D601589606
:100B20008C9358975B969C915B975C968C915C97A5
:100B3000981307C05096ED91FC915197808185FDE7
:100B40002EC0F601038D10E00F5F1F4F0F731127AA
:100B5000F02EF601848DF81211C00FB607FCF9CF04
:100B6000D6015096ED91FC915197808185FFF1CF90
:100B7000C60169830E943F056981EBCF838DE80F31
:100B8000F11DE35AFF4F6083D6015B960C935B9790
:100B90005296ED91FC915397808180620CC0D601F2
:100BA0005696ED91FC91579760835096ED91FC918C
:100BB000519780818064808381E090E00F90DF9185
:100BC000CF911F910F91FF90DF90CF900895BF922A
:100BD000CF92DF92EF92FF92CF93DF93EC016A0105
:100BE0007B01B22EE889F98982E08083411581EE8C
:100BF000580761057105A1F060E079E08DE390E0B0
:100C0000A70196010E94690A215031094109510941
:100C10005695479537952795211580E1380798F027
:100C2000E889F989108260E874E88EE190E0A70114
:100C300096010E94690A21503109410951095695CE
:100C4000479537952795EC85FD853083EE85FF85A3
:100C50002083188EEC89FD89B082EA89FB89808126
:100C600080618083EA89FB89808188608083EA894A
:100C7000FB89808180688083EA89FB8980818F7D00
:100C80008083DF91CF91FF90EF90DF90CF90BF9066
:100C90000895209193023091940228173907B9F4EE
:100CA0009091510280915202981789F0E09151027F
:100CB000F0E0ED5AFD4F80812091510230E02F5F2E
:100CC0003F4F2F7333272093510290E008958FEF09
:100CD0009FEF08951F93CF93DF93DC015C968D9176
:100CE0009C915D97009749F481E090E013969C9366
:100CF0008E93129780E090E03BC05196ED91FC916D
:100D0000529750962C915097322F30951FB75E9680
:100D10004C915E9741FB772770F941FD6095F894FF
:100D20004081772311F0422B01C043234083EC0123
:100D30002197F1F748E0508160FF02C0522B01C0BB
:100D400053235083EC012197F1F76695415099F7B1
:100D50008081772311F0832301C0822B80831FBF02
:100D60005C968D919C915D970197F1F781E090E001
:100D7000DF91CF911F9108952091930230919402B9
:100D80002817390781F490915102809152029817E7
:100D900051F0E0915102F0E0ED5AFD4F808199272A
:100DA00087FD909508958FEF9FEF0895209193020E
:100DB000309194022817390771F4809152022091E2
:100DC000510290E0805C9F4F821B910960E470E0CB
:100DD0000E94550A089580E090E0089520919302C2
:100DE000309194022817390739F48FB7F89410928C
:100DF0005202109251028FBF0895E0919302F09138
:100E00009402E817F90769F4A389B4899C9185894C
:100E1000809589238C93109294021092930281E022
:100E2000089580E00895CF93DF93EC018A8D9B8D28
:100E3000892BF1F080919302909194028C179D0779
:100E4000B9F0009711F00E94FD068E8D8E7F8E8F77
:100E50001092520210925102D0939402C0939302C6
:100E6000EB89FC8980819D89892B808381E001C089
:100E700080E0DF91CF9108951F920F920FB60F92ED
:100E800011242F933F934F935F936F937F938F938F
:100E90009F93AF93BF93EF93FF93E0919302F091F1
:100EA0009402309709F451C0868DA685B785958543
:100EB00081FF04C08C91892329F447C08C91892338
:100EC00009F043C0A389B4899C91858980958923C1
:100ED0008C93868997890197F1F7208D318DA685AE
:100EE000B785758558E040E0C9010197F1F7842F77
:100EF00090E095958795482F6C91672309F040689D
:100F0000515091F7868D81FD40958091520290E07D
:100F100001968F73992720915102281749F0A091CB
:100F20005202B0E0AD5ABD4F4C938093520203C0C1
:100F3000868D8160868F828D938D0197F1F7A389CD
:100F4000B4898C919589892B8C93FF91EF91BF91F6
:100F5000AF919F918F917F916F915F914F913F9151
:100F60002F910F900FBE0F901F9018952BE631E038
:100F7000FC01318320830C94FD061F93CF93DF93F4
:100F8000EC01162F6E8D6695617081E06827812FC8
:100F90000E943C0261E0812F0E940302812F90E0B9
:100FA000FC01E458FF4FE491E88BFC01E057FF4F50
:100FB000E491F0E0EE0FFF1FE255FF4F8591949111
:100FC0009A8B898BDF91CF911F9108951F93CF93B7
:100FD000DF93EC01162F60E0812F0E9403028E8DBB
:100FE00081FD04C061E0812F0E943C021C87812F9B
:100FF00090E0FC01E458FF4FE491ED87FC01E057DD
:10100000FF4FE491F0E0EE0FFF1FEC55FF4F85918D
:1010100094919F878E87DF91CF911F910895FF92C2
:101020000F931F93CF93DF93EC01F62E522F1B8269
:101030001A8208EE13E020E030E00C831D832E833B
:101040003F838BE691E0998388831F8A1E8A198EDD
:10105000188E1B8E1A8E1D8E1C8E8E8D8E7F50FBD1
:1010600081F98E8F642FCE010E94BD076F2DCE01B6
:10107000DF91CF911F910F91FF900C94E607CF93D2
:10108000DF93EC019A01AB011B8E1A8E198E188E1C
:101090001F8A1E8A60E079E08DE390E00E948B0A4F
:1010A000C9012430310520F0B9016350710902C033
:1010B00061E070E07D8F6C8FEC85E63108F068C0F0
:1010C000B901769567956431710518F0635171091E
:1010D00002C061E070E07F8B6E8B069718F0C9014B
:1010E000059702C081E090E0998F888FC901880F31
:1010F000991F820F931F96958795969587958D30AA
:10110000910510F00C9702C081E090E09B8F8A8FD0
:1011100020916800E83050F091E0EE3008F490E063
:1011200081E001C0880F9A95EAF701C084E0822B24
:10113000809368002C85283038F02E3040F026311E
:1011400048F48CE690E008C08DE690E005C08BE6A0
:1011500090E002C080E090E09C8B8B8B283030F4D4
:1011600081E001C0880F2A95EAF70DC0822F90E038
:101170002E3010F4089701C00E9791E001C0990F2E
:101180008A95EAF7892F8D8B8C8D9D8D0197F1F7CC
:10119000CE01DF91CF910C941307F8940C94C40AFC
:1011A0000CD0E6C0DED040F0D5D030F021F45F3F67
:1011B00019F0C7C0511110C1CAC0EBD098F39923E0
:1011C000C9F35523B1F3951B550BBB27AA2762170B
:1011D0007307840738F09F5F5F4F220F331F441F50
:1011E000AA1FA9F333D00E2E3AF0E0E830D0915088
:1011F0005040E695001CCAF729D0FE2F27D0660F75
:10120000771F881FBB1F261737074807AB07B0E8B3
:1012100009F0BB0B802DBF01FF2793585F4F2AF0C9
:101220009E3F510568F08DC0D7C05F3FECF3983EFC
:10123000DCF3869577956795B795F7959F5FC9F726
:10124000880F911D9695879597F90895E1E0660FAF
:10125000771F881FBB1F621773078407BA0720F028
:10126000621B730B840BBA0BEE1F88F7E095089591
:1012700098D088F09F5790F0B92F9927B751A0F0D8
:10128000D1F0660F771F881F991F1AF0BA95C9F71A
:1012900012C0B13081F09FD0B1E008959CC0672F9B
:1012A000782F8827B85F39F0B93FCCF386957795CA
:1012B0006795B395D9F73EF49095809570956195B3
:1012C0007F4F8F4F9F4F0895E89409C097FB3EF4DE
:1012D00090958095709561957F4F8F4F9F4F992383
:1012E000A9F0F92F96E9BB279395F6958795779501
:1012F0006795B795F111F8CFFAF4BB0F11F460FFC1
:101300001BC06F5F7F4F8F4F9F4F16C0882311F018
:1013100096E911C0772321F09EE8872F762F05C02C
:10132000662371F096E8862F70E060E02AF09A95C7
:10133000660F771F881FDAF7880F9695879597F9BC
:10134000089597F99F6780E870E060E008959FEF47
:1013500080EC089500240A9416161706180609064C
:10136000089500240A94121613061406050608951B
:10137000092E0394000C11F4882352F0BB0F40F4A3
:10138000BF2B11F460FF04C06F5F7F4F8F4F9F4FE3
:10139000089557FD9058440F551F59F05F3F71F065
:1013A0004795880F97FB991F61F09F3F79F08795CC
:1013B0000895121613061406551FF2CF4695F1DF55
:1013C00008C0161617061806991FF1CF86957105E5
:1013D000610508940895E894BB2766277727CB0119
:1013E00097F908950BD0C4CFB5DF28F0BADF18F015
:1013F000952309F0A6CFABCF1124EECFCADFA0F31F
:10140000959FD1F3950F50E0551F629FF001729F99
:10141000BB27F00DB11D639FAA27F00DB11DAA1FB8
:10142000649F6627B00DA11D661F829F2227B00D05
:10143000A11D621F739FB00DA11D621F839FA00D90
:10144000611D221F749F3327A00D611D231F849FE0
:10145000600D211D822F762F6A2F11249F57504037
:101460008AF0E1F088234AF0EE0FFF1FBB1F661FD2
:10147000771F881F91505040A9F79E3F510570F08B
:1014800060CFAACF5F3FECF3983EDCF3869577956B
:101490006795B795F795E7959F5FC1F7FE2B880F86
:1014A000911D9695879597F9089597FB072E16F449
:1014B000009407D077FD09D00E94AA0A07FC05D046
:1014C0003EF4909581959F4F0895709561957F4F5B
:1014D0000895A1E21A2EAA1BBB1BFD010DC0AA1F75
:1014E000BB1FEE1FFF1FA217B307E407F50720F08D
:1014F000A21BB30BE40BF50B661F771F881F991F08
:101500001A9469F760957095809590959B01AC0150
:10151000BD01CF010895052E97FB1EF400940E9493
:10152000A20A57FD07D00E94690A07FC03D04EF4B7
:101530000C94A20A50954095309521953F4F4F4FFE
:101540005F4F089590958095709561957F4F8F4F6F
:101550009F4F0895AA1BBB1B51E107C0AA1FBB1FC9
:10156000A617B70710F0A61BB70B881F991F5A952F
:10157000A9F780959095BC01CD010895EE0FFF1F4E
:101580000590F491E02D099410E0C6ECD0E004C081
:10159000FE010E94C00A2296C83CD107C9F7F89400
:0215A000FFCF7B
:1015A20000009040020D202043757272656E742017
:1015B2004C697175696420466C6F77696E673A2071
:1015C200006D4C2F5365630020204F757470757445
:1015D200204C6971756964205175616E7469747902
:1015E2003A20006D4C000D0A006E616E00696E6655
:1015F200006F7666002E000000000082058D030455
:10160200051D050F056005000000006A068D03D662
:08161200064906BC06EE0600C5
:00000001FF
